:1000000018C132C131C151C12FC15FC12DC12CC135
:100010002BC12AC12AC139C127C162C27CC2FFFFDC
:10002000FAFFF5FFEFFFE9FFE3FFDCFFD6FFCFFFAD
:10003000C9FFC2FFBBFFB4FFACFFA5FF9DFF95FF4B
:100040008DFF85FF7DFF74FF6CFF63FF5AFF50FF3C
:1000500047FF3DFF33FF29FF1FFF14FF09FFFEFE8F
:10006000F3FEE8FEDCFED0FEC3FEB7FEAAFE9DFE58
:100070008FFE81FE73FE65FE56FE47FE38FE28FEAB
:1000800018FE08FEF7FDE6FDD5FDC3FDB1FD9EFDA2
:100090008BFD78FD64FD4FFD3BFD25FD10FDF9FC5A
:1000A000E3FCCCFCB4FC9CFC83FC6AFC50FC35FCFF
:1000B0001AFCFFFBE3FBC6FBA8FB8AFB6CFB4CFBBB
:1000C0002CFB0BFBEAFAC7FAA4FA81FA5CFA37FABE
:1000D00010FAE9F9C1F999F96FF944F919F9ECF84D
:1000E000BFF890F861F830F8FFF7CCF798F763F7AE
:1000F0002DF7F6F6BDF683F648F60CF6CEF58FF53D
:100100004FF50DF5C9F485F43EF4F6F3ADF362F363
:1001100015F3C7F277F225F2D1F17CF124F1CBF09F
:1001200070F013F0B3EF52EFEEEE88EE20EEB6ED86
:100130004AEDDBEC69ECF5EB7FEB05EB8AEA0BEAC9
:100140008AE906E97FE8F5E768E7D8E644E6AEE540
:1001500014E576E4D6E332E38AE2DEE12FE17CE0E7
:10016000C4DF09DF4ADE86DDBFDCF3DB22DB4DDAEC
:1001700073D994D8B0D7C8D6DAD5E7D4EED3F1D2B4
:10018000EDD1E4D0D5CFC0CEA5CD84CC5CCB2ECAEA
:10019000FAC8BEC77CC632C5E1C389C229C1C2BF85
:1001A00052BEDBBC5BBBD3B942B8A8B605B55AB3E7
:1001B000A4B1E5AF1CAE4AAC6DAA85A893A695A4E0
:1001C0008DA279A0599E2E9CF699B29761950293C3
:1001D00097901E8E978B02895E86AB83E980187E8E
:1001E000377B4578437530720C6FD66B8E683365FC
:1001F000C661455EB15A08574B53784F914B9347B0
:100200007E43533F103BB6364232B62D1029502460
:10021000751F7F1A6D153E10F20A88050000000058
:10022000326EFF0000326E00FF00326E0000FF1ED3
:10023000020011241FBECFE5D1E0DEBFCDBF10E02C
:10024000A0E6B0E0E8EDFFE002C005900D92A23616
:10025000B107D9F710E0A2E6B0E001C01D92A03CC2
:10026000B107E1F7D5D0B6C6CBCE1F920F920FB62D
:100270000F9211248F9389B78F7E89BFC39A8F9174
:100280000F900FBE0F901F9018951F920F920FB6F0
:100290000F9211248F9389B7877F89BFC49A8F915A
:1002A0000F900FBE0F901F9018951F920F920FB6D0
:1002B0000F9211248F9389B78F7B89BFC19A8F9139
:1002C0000F900FBE0F901F9018951F920F920FB6B0
:1002D0000F9211242F933F934F935F936F937F93CC
:1002E0008F939F93AF93BF93EF93FF9380916E0093
:1002F000882309F04DC0C398C498C1987FD58091D8
:100300009500882379F089E990E066E970E086D568
:100310008AE990E067E970E081D58BE990E068E9CF
:1003200070E07CD580919B00E82FF0E0EE0FFF1F7E
:10033000E25EFF4F859194919093630080936200F9
:10034000909365008093640080919900E82FF0E01D
:10035000EE0FFF1FE25EFF4F85919491909367002F
:1003600080936600909369008093680080919A0062
:10037000E82FF0E0EE0FFF1FE25EFF4F85919491B2
:1003800090936B0080936A0090936D0080936C0053
:1003900090916E0080916900981751F480919900B6
:1003A000882331F08091680089BD89B7806189BF59
:1003B00080916D00981751F480919A00882331F054
:1003C00080916C0088BD89B7886089BF8091650085
:1003D000981751F480919B00882331F0809164003C
:1003E0008EBD89B7806489BF9F5F90936E00FF9137
:1003F000EF91BF91AF919F918F917F916F915F919D
:100400004F913F912F910F900FBE0F901F90189515
:100410001FD5FED174D224D08FEF89BD88BD86E070
:1004200088BF82E089BF81E083BF80BF789402C02B
:100430003BD05CD44CD0882361F0FACFE92FF0E0B8
:10044000E770F070E456FF4F84899F5F9093AE0091
:100450001AD09091AE008091AF00981779F7EACF4B
:1004600010928100109280001092930010929200DE
:1004700087B3856087BBC29AC09AB89888EA8DB95D
:1004800080EF8EB90895282F909192009F5F9F7002
:10049000809193009817E1F3E92FF0E0EE57FF4FBA
:1004A0002083909392000895909180008091810024
:1004B0009817D1F3809181008F5F8F7080938100B6
:1004C000E0918100F0E0E059FF4F80810895909124
:1004D00080008091810020E0981321E0822F089510
:1004E0001F920F920FB60F9211248F9310926F00EC
:1004F000B898B29B02C0B09BFCCFB09902C088EF05
:1005000001C088EA8DB980EF8EB98F910F900FBE30
:100510000F901F9018951F920F920FB60F921124F3
:100520008F939F93EF93FF9380916F008230D9F167
:10053000833030F4882361F0813009F054C018C052
:100540008430B9F1843088F0853009F04CC037C070
:100550008FB1882331F08FB186959091AC008917C7
:10056000F9F4789B39C081E038C08FB18823C1F499
:100570009091920080919300981791F08091930050
:100580008F5F8F7080939300E0919300F0E0EE57BF
:10059000FF4F80818FB982E080936F00B89A0DC0C1
:1005A00088EA8DB90AC083E080936F00B8981FB8BD
:1005B00018C085E080936F00B89880E713C08091E1
:1005C00080008F5F8F7080938000E09180008FB1FA
:1005D000F0E0E059FF4F808384E080936F001FB804
:1005E000B89A8EE78EB9FF91EF919F918F910F90FE
:1005F0000FBE0F901F901895CF92DF92EF92FF924F
:100600000F931F93DF93CF9300D00F92CDB7DEB738
:100610007A016901D801472FE82F362F871730F06C
:10062000731708F4672F4E1750F004C0682F38175F
:1006300008F4632F232F341730F4242F04C02E2FF7
:10064000E31708F4232F2C93222319F4D6011C92CC
:100650000EC0F22FF61B8F2F90E06FEF70E03ED4AC
:10066000622F70E059D4D6016C93662319F4F70118
:1006700010822BC0231759F4842F90E08E1B910910
:100680006BE270E02BD46F2F70E046D41CC0632F58
:1006900070E0241771F48E2F90E0861B970B6BE2AD
:1006A00070E01CD46F2F70E037D46B5AF701608371
:1006B0000CC0CB01841B91096BE270E00FD46F2F4B
:1006C00070E02AD46555D7016C930F900F900F906E
:1006D000CF91DF911F910F91FF90EF90DF90CF901E
:1006E00008959F92AF92BF92CF92DF92EF92FF92C6
:1006F0000F931F93CF93DF93562FF901E8018701E2
:10070000662319F4408348835FC06BE2F9D3B82EA7
:10071000942E92946FE0962252955F70E52EFF24FE
:1007200020E130E0C9018E199F09692D70E0D6D310
:10073000A82E8B2D90E06BE270E0D0D354E095951D
:1007400087955A95E1F7C82EDD24C9018C199D09BA
:10075000B701C4D360E170E0DFD3CB019095819500
:100760009F4F4096692D70E0B9D3282FBB2019F414
:100770004083888313C0C601B701B0D360E170E045
:10078000CBD3CB01909581959F4F4096692D70E01A
:10079000A5D391E0B91629F480834883F801A0829B
:1007A0001AC092E0B91629F4A0824883F801208388
:1007B00012C093E0B91619F4A082888305C094E0B2
:1007C000B91629F42083A882F801408304C040832D
:1007D000A882F8018083DF91CF911F910F91FF9044
:1007E000EF90DF90CF90BF90AF909F900895E199E8
:1007F000FECF8EBBE09A8DB30895E199FECF1CBA6F
:100800008EBB6DBB0FB6F894E29AE19A0FBE0895C5
:100810001092A4008FEF8093A5001092A600109272
:10082000A7001092A8001092A9001092AA0010929E
:10083000AB008DE08093AC001092AD001092AE0042
:100840001092AF008AE28093B80008958F3661F16C
:10085000813651F1873641F18A3531F1843421F105
:10086000843721F1863611F1823511F483E0089541
:100870008E36F1F08336E1F08334D1F08836C1F062
:100880008834B1F08C34A1F0803791F0813411F4C8
:1008900085E00895823411F486E00895873511F0DB
:1008A0008FEF089588E0089581E0089582E008952B
:1008B00084E00895682F882311F480E008958091E2
:1008C00060008F5F809360009091AD009F5F980FF4
:1008D000292F30E043E0220F331F4A95E1F7892F9B
:1008E000880F880B820F92959F70890F93E0220FDB
:1008F000331F9A95E1F7821B03D3892F0895DF9365
:10090000CF9300D000D00F92CDB7DEB7E199FECFE4
:10091000E199FECF85E090E08EBBE09A8DB38093A5
:10092000AC00E199FECFCE01019660E070E045E0B9
:1009300050E027EF33E09ED28981813281F48A81B1
:10094000882369F08093A6008B818093A9008C8115
:10095000882311F0809394008D818093AB000F90D9
:100960000F900F900F900F90CF91DF910895EF921D
:10097000FF920F931F93DF93CF93CDB7DEB72D97E1
:100980000FB6F894DEBF0FBECDBF7C01FC018081A5
:100990008434B1F42091AF00A8EBB0E0922FE92F9E
:1009A000F0E0E770F070E456FF4F8D91848B9F5F0D
:1009B000F0E0A03CBF0799F7285F2093AF0089C102
:1009C0008E3669F410929500F70181818093990029
:1009D000828180939A00838180939B007AC18336C1
:1009E00071F481E080939500F701818180939600F6
:1009F0008281809397008381809398006AC18334B9
:100A0000E1F481E08093950010919900F7018181D4
:100A100051DF180F1093960010919A00F701828110
:100A200049DF180F1093970010919B00F701838105
:100A300041DF180F109398004CC1883641F481E0D3
:100A400080939500F7018181628143812AC08834B7
:100A500091F581E0809395006091990070919A00E2
:100A600080919B00AE014F5F5F4F9E012E5F3F4F15
:100A70008E010D5F1F4FC0DD1981F70181811ADFE3
:100A8000180F19831A81F701828114DF180F1A8356
:100A90001B81F70183810EDF482F410F4B83898132
:100AA0006A8126E930E007E910E058E9E52E50E0D8
:100AB000F52E17DE0EC18735E9F4F70182818A3001
:100AC00008F007C18381898784818A8785818B8724
:100AD00086818C8787818D87E199FECFF70182819E
:100AE00090E065E070E0FAD1885F9F4FBE01675FDC
:100AF0007F4F30C0803771F4F70181818F5F809321
:100B0000A60082818093A90083818093A80010921F
:100B1000AD00DFC08F3619F41092A600DAC082341F
:100B2000F9F481E28C83F7018181882321F08281AD
:100B30008F5F8D8301C01D82F70183818E83848145
:100B40008F8385818887E199FECF80E090E0BE01A8
:100B50006C5F7F4F45E050E02DEF33E0A5D1B9C089
:100B6000863641F4F7018181882309F4B2C080936D
:100B70009400AFC0843729F4F70181818093AB00E2
:100B8000A8C08C3441F4F70182818093A70083814F
:100B90008093A9009EC08134F9F4F7018281803DE1
:100BA00009F097C083818D3009F093C02181848141
:100BB000281709F08EC02093AC00E199FECFE1998F
:100BC000FECF1CBA85E090E08EBB2DBB0FB6F8942B
:100BD000E29AE19A0FBE7DC0813679F48091AF0030
:100BE000E82FF0E0E770F070E456FF4F9091AC0012
:100BF000948B8F5F8093AF006CC08736F9F490912F
:100C0000AF00E92FF0E0E770F070E456FF4F8091FD
:100C10009900848B9F5FE92FF0E0E770F070E45655
:100C2000FF4F80919A00848B9F5FE92FF0E0E7707F
:100C3000F070E456FF4F80919B0047C0823589F5E4
:100C4000E199FECFF701828190E065E070E046D146
:100C5000BC01685F7F4FCE01099645E050E027EF69
:100C600033E008D19091AF00E92FF0E0E770F07029
:100C7000E456FF4F8985848B9F5FDE011A96292FEA
:100C8000AE01425F5F4FE22FF0E0E770F070E45694
:100C9000FF4F8D91848B2F5FA417B507A1F79C5F41
:100CA00016C08A35B1F49091AF00E92FF0E0E770FB
:100CB000F070E456FF4F81E0848B9F5FE92FF0E0F6
:100CC000E770F070E456FF4F83E0848B9F5F909352
:100CD000AF002D960FB6F894DEBF0FBECDBFCF91FB
:100CE000DF911F910F91FF90EF9008951F93CF9385
:100CF000DF931091A400C12FD0E0FE01E456FF4F16
:100D00008083112319F4A2DD8093A5008091A500B2
:100D100090E00197C817D90731F48CE990E027DEFD
:100D20001092A40003C01F5F1093A400DF91CF9125
:100D30001F910895DF93CF9300D000D00F92CDB7CD
:100D4000DEB78091A600813099F4E199FECF8091C1
:100D5000A80090E065E070E0C1D0BC01685F7F4F03
:100D6000CE01019645E050E027EF33E083D01BC071
:100D700090E0880F991F855D9D4FFC01259134916E
:100D8000F90184918093A7008091A80090E065E02C
:100D900070E0A4D00296280F391FCE010196B90148
:100DA00045E050E05ED08091A8008F5F8093A8005E
:100DB000CE010296DCDD9091A8008091A7009817E3
:100DC00089F41092A8009091A900992359F080917C
:100DD000AA008F5F8093AA00891720F01092A600C6
:100DE0001092AA008091AB009981890F0F900F900B
:100DF0000F900F900F90CF91DF9108958091A600F2
:100E0000882359F08091AD008F5F8093AD008150B1
:100E100021F490DF81958093AD000895DC01FB0102
:100E20008C91E0818E1799F090919400E81748F426
:100E3000282F2E1BE22F921708F4E92F8E1B8C937C
:100E40000895E81B9E1708F4E92F8E0F8C930895E0
:100E50001092950081E080939400BB9ABC9AB99A55
:100E60000895FB01DC0102C005900D9241505040F5
:100E7000D8F70895A0E0B0E0EFE3F7E07EC07C0192
:100E8000EB018A01690109C0CE012196F60109959D
:100E9000F70181937F010150104001151105A1F761
:100EA000CDB7DEB7E8E085C0A0E0B0E0E9E5F7E067
:100EB00064C0EC017B018A01690109C0CE01219661
:100EC000F70161917F01F60109950150104001156C
:100ED0001105A1F7CDB7DEB7E8E06BC055270024B8
:100EE00080FF02C0060E571F660F771F6115710540
:100EF00021F096958795009799F7952F802D089565
:100F0000991B79E004C0991F961708F0961B881F5B
:100F10007A95C9F78095089597FB092E07260AD080
:100F200077FD04D00CD006D000201AF4709561959E
:100F30007F4F0895F6F7909581959F4F0895AA1BCE
:100F4000BB1B51E107C0AA1FBB1FA617B70710F0B4
:100F5000A61BB70B881F991F5A95A9F780959095E6
:100F6000BC01CD0108952F923F924F925F926F92F4
:100F70007F928F929F92AF92BF92CF92DF92EF9229
:100F8000FF920F931F93CF93DF93CDB7DEB7CA1BAA
:100F9000DB0B0FB6F894DEBF0FBECDBF09942A88D5
:100FA000398848885F846E847D848C849B84AA847D
:100FB000B984C884DF80EE80FD800C811B81AA810A
:100FC000B981CE0FD11D0FB6F894DEBF0FBECDBFD5
:080FD000ED010895F894FFCF34
:020FD800010016
:00000001FF
